{
  "contractName": "Exchange",
  "abi": [
    {
      "inputs": [
        {
          "internalType": "address",
          "name": "_feeAccount",
          "type": "address"
        },
        {
          "internalType": "uint256",
          "name": "_feePercent",
          "type": "uint256"
        }
      ],
      "stateMutability": "nonpayable",
      "type": "constructor"
    },
    {
      "anonymous": false,
      "inputs": [
        {
          "indexed": false,
          "internalType": "address",
          "name": "token",
          "type": "address"
        },
        {
          "indexed": false,
          "internalType": "address",
          "name": "user",
          "type": "address"
        },
        {
          "indexed": false,
          "internalType": "uint256",
          "name": "amount",
          "type": "uint256"
        },
        {
          "indexed": false,
          "internalType": "uint256",
          "name": "balance",
          "type": "uint256"
        }
      ],
      "name": "Deposit",
      "type": "event"
    },
    {
      "inputs": [],
      "name": "feeAccount",
      "outputs": [
        {
          "internalType": "address",
          "name": "",
          "type": "address"
        }
      ],
      "stateMutability": "view",
      "type": "function"
    },
    {
      "inputs": [],
      "name": "feePercent",
      "outputs": [
        {
          "internalType": "uint256",
          "name": "",
          "type": "uint256"
        }
      ],
      "stateMutability": "view",
      "type": "function"
    },
    {
      "inputs": [
        {
          "internalType": "address",
          "name": "",
          "type": "address"
        },
        {
          "internalType": "address",
          "name": "",
          "type": "address"
        }
      ],
      "name": "tokens",
      "outputs": [
        {
          "internalType": "uint256",
          "name": "",
          "type": "uint256"
        }
      ],
      "stateMutability": "view",
      "type": "function"
    },
    {
      "inputs": [],
      "name": "depositEther",
      "outputs": [],
      "stateMutability": "payable",
      "type": "function"
    },
    {
      "inputs": [
        {
          "internalType": "uint256",
          "name": "_amount",
          "type": "uint256"
        }
      ],
      "name": "withdrawEther",
      "outputs": [],
      "stateMutability": "nonpayable",
      "type": "function"
    },
    {
      "inputs": [
        {
          "internalType": "address",
          "name": "_token",
          "type": "address"
        },
        {
          "internalType": "uint256",
          "name": "_amount",
          "type": "uint256"
        }
      ],
      "name": "depositToken",
      "outputs": [],
      "stateMutability": "nonpayable",
      "type": "function"
    }
  ],
  "bytecode": "0x608060405234801561001057600080fd5b5060405162000c0538038062000c058339818101604052810190610034919061011b565b816000806101000a81548173ffffffffffffffffffffffffffffffffffffffff021916908373ffffffffffffffffffffffffffffffffffffffff16021790555080600181905550505061015b565b600080fd5b600073ffffffffffffffffffffffffffffffffffffffff82169050919050565b60006100b282610087565b9050919050565b6100c2816100a7565b81146100cd57600080fd5b50565b6000815190506100df816100b9565b92915050565b6000819050919050565b6100f8816100e5565b811461010357600080fd5b50565b600081519050610115816100ef565b92915050565b6000806040838503121561013257610131610082565b5b6000610140858286016100d0565b925050602061015185828601610106565b9150509250929050565b610a9a806200016b6000396000f3fe6080604052600436106100555760003560e01c8063338b5dea1461005a5780633bed33ce14610083578063508493bc146100ac57806365e17c9d146100e95780637fd6f15c1461011457806398ea5fca1461013f575b600080fd5b34801561006657600080fd5b50610081600480360381019061007c91906107c9565b610149565b005b34801561008f57600080fd5b506100aa60048036038101906100a59190610809565b6103d8565b005b3480156100b857600080fd5b506100d360048036038101906100ce9190610836565b6104ea565b6040516100e09190610885565b60405180910390f35b3480156100f557600080fd5b506100fe61050f565b60405161010b91906108af565b60405180910390f35b34801561012057600080fd5b50610129610533565b6040516101369190610885565b60405180910390f35b610147610539565b005b600073ffffffffffffffffffffffffffffffffffffffff168273ffffffffffffffffffffffffffffffffffffffff16141561018357600080fd5b8173ffffffffffffffffffffffffffffffffffffffff166323b872dd3330846040518463ffffffff1660e01b81526004016101c0939291906108ca565b6020604051808303816000875af11580156101df573d6000803e3d6000fd5b505050506040513d601f19601f820116820180604052508101906102039190610939565b61020c57600080fd5b61029b81600260008573ffffffffffffffffffffffffffffffffffffffff1673ffffffffffffffffffffffffffffffffffffffff16815260200190815260200160002060003373ffffffffffffffffffffffffffffffffffffffff1673ffffffffffffffffffffffffffffffffffffffff1681526020019081526020016000205461070490919063ffffffff16565b600260008473ffffffffffffffffffffffffffffffffffffffff1673ffffffffffffffffffffffffffffffffffffffff16815260200190815260200160002060003373ffffffffffffffffffffffffffffffffffffffff1673ffffffffffffffffffffffffffffffffffffffff168152602001908152602001600020819055507fdcbc1c05240f31ff3ad067ef1ee35ce4997762752e3a095284754544f4c709d7823383600260008773ffffffffffffffffffffffffffffffffffffffff1673ffffffffffffffffffffffffffffffffffffffff16815260200190815260200160002060003373ffffffffffffffffffffffffffffffffffffffff1673ffffffffffffffffffffffffffffffffffffffff168152602001908152602001600020546040516103cc9493929190610966565b60405180910390a15050565b61046781600260008073ffffffffffffffffffffffffffffffffffffffff1673ffffffffffffffffffffffffffffffffffffffff16815260200190815260200160002060003373ffffffffffffffffffffffffffffffffffffffff1673ffffffffffffffffffffffffffffffffffffffff1681526020019081526020016000205461071a90919063ffffffff16565b600260008073ffffffffffffffffffffffffffffffffffffffff1673ffffffffffffffffffffffffffffffffffffffff16815260200190815260200160002060003373ffffffffffffffffffffffffffffffffffffffff1673ffffffffffffffffffffffffffffffffffffffff1681526020019081526020016000208190555050565b6002602052816000526040600020602052806000526040600020600091509150505481565b60008054906101000a900473ffffffffffffffffffffffffffffffffffffffff1681565b60015481565b6105c834600260008073ffffffffffffffffffffffffffffffffffffffff1673ffffffffffffffffffffffffffffffffffffffff16815260200190815260200160002060003373ffffffffffffffffffffffffffffffffffffffff1673ffffffffffffffffffffffffffffffffffffffff1681526020019081526020016000205461070490919063ffffffff16565b600260008073ffffffffffffffffffffffffffffffffffffffff1673ffffffffffffffffffffffffffffffffffffffff16815260200190815260200160002060003373ffffffffffffffffffffffffffffffffffffffff1673ffffffffffffffffffffffffffffffffffffffff168152602001908152602001600020819055507fdcbc1c05240f31ff3ad067ef1ee35ce4997762752e3a095284754544f4c709d760003334600260008073ffffffffffffffffffffffffffffffffffffffff1673ffffffffffffffffffffffffffffffffffffffff16815260200190815260200160002060003373ffffffffffffffffffffffffffffffffffffffff1673ffffffffffffffffffffffffffffffffffffffff168152602001908152602001600020546040516106fa9493929190610966565b60405180910390a1565b6000818361071291906109da565b905092915050565b600081836107289190610a30565b905092915050565b600080fd5b600073ffffffffffffffffffffffffffffffffffffffff82169050919050565b600061076082610735565b9050919050565b61077081610755565b811461077b57600080fd5b50565b60008135905061078d81610767565b92915050565b6000819050919050565b6107a681610793565b81146107b157600080fd5b50565b6000813590506107c38161079d565b92915050565b600080604083850312156107e0576107df610730565b5b60006107ee8582860161077e565b92505060206107ff858286016107b4565b9150509250929050565b60006020828403121561081f5761081e610730565b5b600061082d848285016107b4565b91505092915050565b6000806040838503121561084d5761084c610730565b5b600061085b8582860161077e565b925050602061086c8582860161077e565b9150509250929050565b61087f81610793565b82525050565b600060208201905061089a6000830184610876565b92915050565b6108a981610755565b82525050565b60006020820190506108c460008301846108a0565b92915050565b60006060820190506108df60008301866108a0565b6108ec60208301856108a0565b6108f96040830184610876565b949350505050565b60008115159050919050565b61091681610901565b811461092157600080fd5b50565b6000815190506109338161090d565b92915050565b60006020828403121561094f5761094e610730565b5b600061095d84828501610924565b91505092915050565b600060808201905061097b60008301876108a0565b61098860208301866108a0565b6109956040830185610876565b6109a26060830184610876565b95945050505050565b7f4e487b7100000000000000000000000000000000000000000000000000000000600052601160045260246000fd5b60006109e582610793565b91506109f083610793565b9250827fffffffffffffffffffffffffffffffffffffffffffffffffffffffffffffffff03821115610a2557610a246109ab565b5b828201905092915050565b6000610a3b82610793565b9150610a4683610793565b925082821015610a5957610a586109ab565b5b82820390509291505056fea2646970667358221220452e6fec9c176ed42b85940d8d16953cb150b25c8141cf2bfa5b6375b379b38064736f6c634300080a0033",
  "immutableReferences": {},
  "source": "// SPDX-License-Identifier: MIT\r\npragma solidity >=0.5.0 <=0.9.0;\r\n\r\nimport './Token.sol';\r\nimport '../../node_modules/@openzeppelin/contracts/utils/math/SafeMath.sol';\r\n\r\n//Todo: \r\n// [X] Set the fee account\r\n// [] Deposit Ether\r\n// [] Withdraw Ether\r\n// [] Deposit tokens\r\n// [] Withdraw tokens\r\n// [] Check balance\r\n// [] Make order\r\n// [] Cancel order\r\n// [] Fill order\r\n// [] Charge fees\r\n\r\ncontract Exchange {\r\n\r\n    using SafeMath for uint;\r\n\r\n    address public feeAccount; //the account that receives exchange fees\r\n    uint256 public feePercent; // the fee percentage\r\n    address constant ETHER = address(0); // store Ether in tokens mapping with blank address\r\n    mapping(address => mapping(address => uint256)) public tokens;//tokens[tokenaddress][useraddress]\r\n    \r\n\r\n    //Events\r\n    event Deposit(address token, address user, uint256 amount, uint256 balance);\r\n    \r\n\r\n    constructor (address _feeAccount, uint256 _feePercent) {\r\n        feeAccount = _feeAccount;\r\n        feePercent = _feePercent;\r\n    }\r\n\r\n    function depositEther() payable public {\r\n        tokens[ETHER][msg.sender] = tokens[ETHER][msg.sender].add(msg.value);\r\n        emit Deposit(ETHER, msg.sender, msg.value, tokens[ETHER][msg.sender]);\r\n    }\r\n\r\n\r\n    function withdrawEther(uint _amount) public {\r\n        tokens[ETHER][msg.sender] = tokens[ETHER][msg.sender].sub(_amount);\r\n    }\r\n\r\n\r\n    function depositToken(address _token, uint _amount) public {\r\n        require(_token != ETHER);\r\n        require(Token(_token).transferFrom(msg.sender, address(this), _amount));\r\n        tokens[_token][msg.sender] = tokens[_token][msg.sender].add(_amount);\r\n        emit Deposit(_token, msg.sender, _amount, tokens[_token][msg.sender]);\r\n    }\r\n\r\n\r\n\r\n    \r\n}\r\n\r\n\r\n",
  "sourcePath": "E:\\programming\\order-dex\\src\\contracts\\Exchange.sol",
  "compiler": {
    "name": "solc",
    "version": "0.8.10+commit.fc410830.Emscripten.clang"
  },
  "schemaVersion": "3.4.4",
  "updatedAt": "2022-02-04T22:03:05.380Z",
  "devdoc": {
    "kind": "dev",
    "methods": {},
    "version": 1
  },
  "userdoc": {
    "kind": "user",
    "methods": {},
    "version": 1
  }
}