{
  "contractName": "Exchange",
  "abi": [
    {
      "inputs": [
        {
          "internalType": "address",
          "name": "_feeAccount",
          "type": "address"
        },
        {
          "internalType": "uint256",
          "name": "_feePercent",
          "type": "uint256"
        }
      ],
      "stateMutability": "nonpayable",
      "type": "constructor"
    },
    {
      "anonymous": false,
      "inputs": [
        {
          "indexed": false,
          "internalType": "address",
          "name": "token",
          "type": "address"
        },
        {
          "indexed": false,
          "internalType": "address",
          "name": "user",
          "type": "address"
        },
        {
          "indexed": false,
          "internalType": "uint256",
          "name": "amount",
          "type": "uint256"
        },
        {
          "indexed": false,
          "internalType": "uint256",
          "name": "balance",
          "type": "uint256"
        }
      ],
      "name": "Deposit",
      "type": "event"
    },
    {
      "inputs": [],
      "name": "feeAccount",
      "outputs": [
        {
          "internalType": "address",
          "name": "",
          "type": "address"
        }
      ],
      "stateMutability": "view",
      "type": "function"
    },
    {
      "inputs": [],
      "name": "feePercent",
      "outputs": [
        {
          "internalType": "uint256",
          "name": "",
          "type": "uint256"
        }
      ],
      "stateMutability": "view",
      "type": "function"
    },
    {
      "inputs": [
        {
          "internalType": "address",
          "name": "",
          "type": "address"
        },
        {
          "internalType": "address",
          "name": "",
          "type": "address"
        }
      ],
      "name": "tokens",
      "outputs": [
        {
          "internalType": "uint256",
          "name": "",
          "type": "uint256"
        }
      ],
      "stateMutability": "view",
      "type": "function"
    },
    {
      "inputs": [
        {
          "internalType": "address",
          "name": "_token",
          "type": "address"
        },
        {
          "internalType": "uint256",
          "name": "_amount",
          "type": "uint256"
        }
      ],
      "name": "depositToken",
      "outputs": [],
      "stateMutability": "nonpayable",
      "type": "function"
    }
  ],
  "bytecode": "0x608060405234801561001057600080fd5b5060405161080438038061080483398181016040528101906100329190610119565b816000806101000a81548173ffffffffffffffffffffffffffffffffffffffff021916908373ffffffffffffffffffffffffffffffffffffffff160217905550806001819055505050610159565b600080fd5b600073ffffffffffffffffffffffffffffffffffffffff82169050919050565b60006100b082610085565b9050919050565b6100c0816100a5565b81146100cb57600080fd5b50565b6000815190506100dd816100b7565b92915050565b6000819050919050565b6100f6816100e3565b811461010157600080fd5b50565b600081519050610113816100ed565b92915050565b600080604083850312156101305761012f610080565b5b600061013e858286016100ce565b925050602061014f85828601610104565b9150509250929050565b61069c806101686000396000f3fe608060405234801561001057600080fd5b506004361061004c5760003560e01c8063338b5dea14610051578063508493bc1461006d57806365e17c9d1461009d5780637fd6f15c146100bb575b600080fd5b61006b6004803603810190610066919061042c565b6100d9565b005b6100876004803603810190610082919061046c565b61032e565b60405161009491906104bb565b60405180910390f35b6100a5610353565b6040516100b291906104e5565b60405180910390f35b6100c3610377565b6040516100d091906104bb565b60405180910390f35b8173ffffffffffffffffffffffffffffffffffffffff166323b872dd3330846040518463ffffffff1660e01b815260040161011693929190610500565b6020604051808303816000875af1158015610135573d6000803e3d6000fd5b505050506040513d601f19601f82011682018060405250810190610159919061056f565b61016257600080fd5b6101f181600260008573ffffffffffffffffffffffffffffffffffffffff1673ffffffffffffffffffffffffffffffffffffffff16815260200190815260200160002060003373ffffffffffffffffffffffffffffffffffffffff1673ffffffffffffffffffffffffffffffffffffffff1681526020019081526020016000205461037d90919063ffffffff16565b600260008473ffffffffffffffffffffffffffffffffffffffff1673ffffffffffffffffffffffffffffffffffffffff16815260200190815260200160002060003373ffffffffffffffffffffffffffffffffffffffff1673ffffffffffffffffffffffffffffffffffffffff168152602001908152602001600020819055507fdcbc1c05240f31ff3ad067ef1ee35ce4997762752e3a095284754544f4c709d7823383600260008773ffffffffffffffffffffffffffffffffffffffff1673ffffffffffffffffffffffffffffffffffffffff16815260200190815260200160002060003373ffffffffffffffffffffffffffffffffffffffff1673ffffffffffffffffffffffffffffffffffffffff16815260200190815260200160002054604051610322949392919061059c565b60405180910390a15050565b6002602052816000526040600020602052806000526040600020600091509150505481565b60008054906101000a900473ffffffffffffffffffffffffffffffffffffffff1681565b60015481565b6000818361038b9190610610565b905092915050565b600080fd5b600073ffffffffffffffffffffffffffffffffffffffff82169050919050565b60006103c382610398565b9050919050565b6103d3816103b8565b81146103de57600080fd5b50565b6000813590506103f0816103ca565b92915050565b6000819050919050565b610409816103f6565b811461041457600080fd5b50565b60008135905061042681610400565b92915050565b6000806040838503121561044357610442610393565b5b6000610451858286016103e1565b925050602061046285828601610417565b9150509250929050565b6000806040838503121561048357610482610393565b5b6000610491858286016103e1565b92505060206104a2858286016103e1565b9150509250929050565b6104b5816103f6565b82525050565b60006020820190506104d060008301846104ac565b92915050565b6104df816103b8565b82525050565b60006020820190506104fa60008301846104d6565b92915050565b600060608201905061051560008301866104d6565b61052260208301856104d6565b61052f60408301846104ac565b949350505050565b60008115159050919050565b61054c81610537565b811461055757600080fd5b50565b60008151905061056981610543565b92915050565b60006020828403121561058557610584610393565b5b60006105938482850161055a565b91505092915050565b60006080820190506105b160008301876104d6565b6105be60208301866104d6565b6105cb60408301856104ac565b6105d860608301846104ac565b95945050505050565b7f4e487b7100000000000000000000000000000000000000000000000000000000600052601160045260246000fd5b600061061b826103f6565b9150610626836103f6565b9250827fffffffffffffffffffffffffffffffffffffffffffffffffffffffffffffffff0382111561065b5761065a6105e1565b5b82820190509291505056fea2646970667358221220e3446096aff13e5349a1cb219d6e1403aee5bb812a86468c9ec48dfd342a9f5f64736f6c634300080a0033",
  "immutableReferences": {},
  "source": "// SPDX-License-Identifier: MIT\r\npragma solidity >=0.5.0 <=0.9.0;\r\n\r\nimport './Token.sol';\r\nimport '../../node_modules/@openzeppelin/contracts/utils/math/SafeMath.sol';\r\n\r\n//Todo: \r\n// [X] Set the fee account\r\n// [] Deposit Ether\r\n// [] Withdraw Ether\r\n// [] Deposit tokens\r\n// [] Withdraw tokens\r\n// [] Check balance\r\n// [] Make order\r\n// [] Cancel order\r\n// [] Fill order\r\n// [] Charge fees\r\n\r\ncontract Exchange {\r\n\r\n    using SafeMath for uint;\r\n\r\n    address public feeAccount; //the account that receives exchange fees\r\n    uint256 public feePercent; // the fee percentage\r\n    mapping(address => mapping(address => uint256)) public tokens;//tokens[tokenaddress][useraddress]\r\n\r\n    //Events\r\n    event Deposit(address token, address user, uint256 amount, uint256 balance);\r\n    \r\n\r\n    constructor (address _feeAccount, uint256 _feePercent) {\r\n        feeAccount = _feeAccount;\r\n        feePercent = _feePercent;\r\n    }\r\n\r\n    function depositToken(address _token, uint _amount) public {\r\n        require(Token(_token).transferFrom(msg.sender, address(this), _amount));\r\n        tokens[_token][msg.sender] = tokens[_token][msg.sender].add(_amount);\r\n        emit Deposit(_token, msg.sender, _amount, tokens[_token][msg.sender]);\r\n    }\r\n\r\n    \r\n}\r\n\r\n\r\n",
  "sourcePath": "E:\\programming\\order-dex\\src\\contracts\\Exchange.sol",
  "compiler": {
    "name": "solc",
    "version": "0.8.10+commit.fc410830.Emscripten.clang"
  },
  "schemaVersion": "3.4.4",
  "updatedAt": "2022-01-14T21:59:17.032Z",
  "devdoc": {
    "kind": "dev",
    "methods": {},
    "version": 1
  },
  "userdoc": {
    "kind": "user",
    "methods": {},
    "version": 1
  }
}